:020000040800F2
:1000000068060020290200083102000833020008B7
:10001000350200083702000839020008000000001D
:100020000000000000000000000000003B0200088B
:100030003D020008000000003F02000839050008EA
:10004000430200084302000843020008430200087C
:10005000430200084302000843020008430200086C
:10006000430200084302000843020008430200085C
:10007000430200084302000843020008430200084C
:10008000430200084302000843020008430200083C
:10009000430200084302000843020008430200082C
:1000A000430200084302000843020008430200081C
:1000B000430200084302000843020008430200080C
:1000C00043020008430200084302000843020008FC
:1000D00043020008430200084302000843020008EC
:1000E00043020008430200084302000843020008DC
:1000F00043020008430200084302000843020008CC
:1001000043020008430200084302000843020008BB
:1001100043020008430200084302000843020008AB
:10012000430200084302000843020008430200089B
:10013000430200084302000843020008430200088B
:10014000430200084302000843020008430200087B
:10015000430200084302000843020008430200086B
:10016000430200084302000843020008430200085B
:100170004302000843020008430200080000000098
:10018000430200084302000800F002F800F03CF8C7
:100190000AA090E8000C82448344AAF10107DA45E2
:1001A00001D100F031F8AFF2090EBAE80F0013F0F8
:1001B000010F18BFFB1A43F001031847C4050000E4
:1001C000E4050000103A24BF78C878C1FAD8520775
:1001D00024BF30C830C144BF04680C6070470000C1
:1001E0000023002400250026103A28BF78C1FBD840
:1001F000520728BF30C148BF0B6070471FB500F0E1
:10020000ADFA1FBD10B510BD00F031F81146FFF773
:10021000F5FF00F02FFA00F04FF803B4FFF7F2FFFC
:1002200003BC00F057F80000094880470948004720
:10023000FEE7FEE7FEE7FEE7FEE7FEE7FEE7FEE796
:10024000FEE7FEE704480549054A064B70470000F3
:1002500011060008890100086800002068060020D7
:10026000680200206802002070477047704775469A
:1002700000F02CF8AE4605006946534620F0070012
:10028000854618B020B5FFF7DDFFBDE820404FF0F0
:1002900000064FF000074FF000084FF0000B21F070
:1002A0000701AC46ACE8C009ACE8C009ACE8C0093D
:1002B000ACE8C0098D46704710B50446AFF3008026
:1002C0002046BDE81040FFF7A8BF00000048704777
:1002D0000800002001491820ABBEFEE726000200FE
:1002E000704700000349086000BF024909680029FF
:1002F000FBD17047040000204B48006840F0080024
:10030000494908604948006820F000704749086082
:100310000846006840F080700860081D006820F4FE
:100320008050091D086041480C30006820F0407082
:100330003E490C310860081F006840F08070091FBA
:1003400008600846006820F00070086037480068C0
:1003500020F00060354908600846006840F0806081
:100360000860081D006820F40050091D08602F482F
:100370000C30006820F040602C490C310860081FE8
:10038000006840F08060091F08600846006820F09F
:10039000006008602548006820F00050234908608C
:1003A0000846006840F080500860081D006820F48E
:1003B0008040091D08601D480C30006820F0405046
:1003C0001A490C310860081F006840F08050091F6E
:1003D00008600846006820F0005008601348006874
:1003E00020F00040114908600846006840F0804055
:1003F0000860081D006820F40040091D08600B48D3
:100400000C30006820F0404008490C310860081F9B
:10041000006840F08040091F08600846006820F02E
:10042000004008607047000030380240000C024075
:100430003F48006820F03F003D49086008460068DA
:1004400047F6C07188433A4908600846006820F4BE
:10045000403008600846006820F070600860084678
:10046000006820F480000860081F006840F48030B5
:10047000091F086000BF2E48001F006800F400300C
:100480000028F8D02A48001D00682949091D086085
:100490000846006840F4A05008600846006840F430
:1004A00000400860081F006840F00800091F08604D
:1004B0000846006840F4A84008600846006820F438
:1004C000403008600846006840F480000860084634
:1004D000006840F0E0600860081F006840F080702D
:1004E000091F086000BF1248001F006800F000707C
:1004F0000028F8D00F48006840F2057108430D4904
:1005000008600B48001D006820F003000849091D21
:1005100008600846006840F00200086000BF044818
:10052000001D006800F008000028F8D070470000A7
:1005300004380240003C02400448006820B10348EF
:100540000068401E01490860704700000400002058
:1005500070B500200022022300240221274D2D68BF
:1005600005F00C0020B1042806D0082834D107E09B
:10057000234D244E356033E0234D224E35602FE06D
:100580001E4D2D1F2D68C5F380541C4D2D1F2D6849
:1005900005F03F0154B11C4DB5FBF1F5174E361F68
:1005A0003668C6F3881605FB06F209E0144DB5FB64
:1005B000F1F5124E361F3668C6F3881605FB06F2B3
:1005C0000E4D2D1F2D68C5F301456D1C6B00B2FB50
:1005D000F3F50C4E356003E0094D0A4E356000BF5F
:1005E00000BF064D2D68C5F30315084E705D054D1F
:1005F0002D68C540034E356070BD000008380240CC
:100600000024F4000000002000127A0066070008B1
:100610001448006840F470001249086012480068ED
:1006200040F001001049086000200F4908310860BF
:100630000D4800680D4908400B4908600C48091D29
:100640000860081F006820F48020091F086000204F
:1006500005490C3108604FF000600249803908609C
:100660007047000088ED00E000380240FFFFF6FE12
:1006700010300024FFF7DCFEFFF73EFEFFF768FFB7
:10068000324800684FF47A72B0FBF2F1481EB0F1C4
:10069000807F00D31BE0481E4FF0E02250615017CE
:1006A0000F22002807DA13071D0E294B00F00F0454
:1006B000241F1D5503E013071C0E264B1C5400BFBE
:1006C00000204FF0E02290610720106100BF3BE066
:1006D0002148006840F000401F4908600846006853
:1006E00040F4805008604FF47A70FFF7FBFD1A4821
:1006F000006840F08050184908600846006840F4DF
:10070000005008604FF47A70FFF7ECFD1248006863
:1007100040F00050104908600846006840F48040EE
:1007200008604FF47A70FFF7DDFD0B48006840F079
:100730008040094908600846006840F400400860AD
:100740004FF47A70FFF7CEFDC2E7000000000020F2
:1007500018ED00E000E400E0180C02404FF040709B
:10076000E1EE100A704700000000000000000102E6
:10077000030406070809000000000102030400004A
:10078000A00700080000002008000000C4010008C5
:10079000A80700080800002060060000E00100082B
:0807A0000024F4000000000039
:040000050800018965
:00000001FF
